:020000040000FA
:1000000068020010650100006D0100006F01000032
:1000100000000000000000000000000000000000E0
:10002000000000000000000000000000710100005E
:1000300000000000000000007301000075010000D6
:1000400077010000770100007701000077010000D0
:1000500077010000770100007701000077010000C0
:1000600077010000770100007701000077010000B0
:1000700077010000770100007701000077010000A0
:100080007701000077010000770100007701000090
:100090007701000077010000770100007701000080
:1000A0007701000077010000770100007701000070
:1000B0007701000077010000770100007701000060
:1000C00000F002F800F03EF80CA030C80838241800
:1000D0002D18A246671EAB4654465D46AC4201D180
:1000E00000F030F87E460F3E0FCCB6460126334274
:1000F00000D0FB1AA246AB4633431847E00100008C
:1001000000020000103A02D378C878C1FAD852072A
:1001100001D330C830C101D504680C6070470000BD
:100120000023002400250026103A01D378C1FBD813
:10013000520700D330C100D50B6070471FB51FBDFB
:1001400010B510BD00F02BF81146FFF7F7FF00F0D7
:100150003DFB00F043F803B4FFF7F2FF03BC00F0EF
:1001600047F800000748804707480047FEE7FEE7DA
:10017000FEE7FEE7FEE7FEE704480549034A054BB4
:10018000704700002D070000C1000000680000104B
:10019000680200106800001070477047704775468D
:1001A00000F022F8AE46050069465346C008C0007C
:1001B000854618B020B5FFF7DFFF60BC002749086F
:1001C000B6460026C0C5C0C5C0C5C0C5C0C5C0C5EF
:1001D000C0C5C0C5403D49008D4670470446C04675
:1001E000C0462046FFF7B7FF0048704704000010E4
:1001F00001491820ABBEFEE726000200704770B52B
:100200000646282000F008FAFF234033EF220021A1
:10021000084600F02BFA2C2000F0FEF9002408E03C
:10022000002503E0304600F045FA6D1CF02DF9D3AF
:10023000641CFF2041308442F2D3292000F0ECF905
:1002400070BD0000FCB506460F46144638460F3018
:1002500083B2F01D82B23946304600F007FA2C20F6
:1002600000F0DAF92046203884B2002522E020018F
:1002700012494018405D01900020009015E0802157
:1002800001980840002804D00D48008800F012FAB8
:1002900003E00C48008800F00DFA01984006000EBB
:1002A00001900098401CC0B2009000980828E6DB3E
:1002B000681CC5B2102DDADBFCBD0000FC07000095
:1002C00000000010020000100349484300BF01462F
:1002D000401E0029FBD1704788130000EC0D000080
:1002E000000000100400000004010000F00D0000F8
:1002F000040000106402000020010000FFFFFFFF67
:1003000000B5AA4800680121C9020843A74908604E
:10031000A748C06B0121C9020843A549C863A54885
:10032000006801210843A3490860A348C06B01216C
:100330000843A149C8639F480068022108439D49BA
:1003400008609D48C06B022108439B49C8639948D7
:10035000006808210843974908609748C06B082146
:1003600008439549C86395480068FF21090108437F
:10037000924908609248C06BFF21090108439049E7
:10038000C8637820FFF7A0FFCF2000F045F90020D8
:1003900000F018F9C12000F015F9302000F012F932
:1003A000ED2000F039F9642000F00CF9032000F092
:1003B00009F9122000F006F9812000F003F9E82085
:1003C00000F02AF9852000F0FDF8102000F0FAF87E
:1003D0007A2000F0F7F8CB2000F01EF9392000F069
:1003E000F1F82C2000F0EEF8002000F0EBF83420BB
:1003F00000F0E8F8022000F0E5F8F72000F00CF932
:10040000202000F0DFF8EA2000F006F9002000F0DC
:10041000D9F8002000F0D6F8C02000F0FDF81B202D
:1004200000F0D0F8C12000F0F7F8012000F0CAF881
:10043000C52000F0F1F8302000F0C4F8302000F0C2
:10044000C1F8C72000F0E8F8B72000F0BBF836206C
:1004500000F0E2F8082000F0B5F83A2000F0DCF8EF
:10046000552000F0AFF8B12000F0D6F8002000F0E1
:10047000A9F81A2000F0A6F8B62000F0CDF80A205E
:1004800000F0A0F8A22000F09DF8F22000F0C4F8DF
:10049000002000F097F8262000F0BEF8012000F0C0
:1004A00091F8E02000F0B8F80F2000F08BF82A2037
:1004B00000F088F8282000F085F8082000F082F885
:1004C0000E2000F07FF8082000F07CF8542000F0A7
:1004D00079F8A92000F076F8432000F073F80A209C
:1004E00000F070F80F2000F06DF8002000F06AF8BE
:1004F000002000F067F8002000F064F8002000F011
:1005000061F8E12000F088F8002000F05BF8152089
:1005100000F058F8172000F055F8072000F052F8C6
:10052000112000F04FF8062000F04CF82B2000F0CE
:1005300049F8562000F046F83C2000F043F805202A
:1005400000F040F8102000F03DF80F2000F03AF8DD
:100550003F2000F037F83F2000F034F80F2000F083
:1005600031F82B2000F058F8002000F02BF8002084
:1005700000F028F8012000F025F83F2000F022F8D4
:100580002A2000F049F8002000F01CF8002000F0BC
:1005900019F8002000F016F8EF2000F013F81120F1
:1005A00000F03AF87820FFF78FFE00BD0080015080
:1005B000C03F015000800350C03F035000800250F4
:1005C000C03F02501149C96B012211430F4AD16348
:1005D0001146C96B022291430C4AD16301010C4AB6
:1005E000D1630C49C96B0122D2029143094AD163FC
:1005F0001146C96B0122D2021143064AD163034955
:10060000C96B02221143014AD1637047C03F0350B6
:10061000C03F0250C03F01501149C96B4908490011
:100620000F4AD1631146C96B022291430C4AD16330
:1006300001010C4AD1630C49C96B0122D2029143DA
:10064000094AD1631146C96B0122D2021143064AFD
:10065000D1630349C96B02221143014AD163704738
:10066000C03F0350C03F0250C03F015070B5044628
:100670000D4616462A20FFF7CFFF2012FFF7A2FFF4
:10068000E0B2FFF79FFF3012FFF79CFFF0B2FFF7D9
:1006900099FF2B20FFF7C0FF2812FFF793FFE8B266
:1006A000FFF790FF1812FFF78DFFD8B2FFF78AFF10
:1006B00070BD00001A49C96B01221143184AD16369
:1006C0001146C96B02229143154AD16301120901F7
:1006D000144AD1631449C96B0122D2029143124AD0
:1006E000D1631146C96B0122D20211430E4AD16374
:1006F00001010C4AD1630C49C96B0122D20291431A
:10070000094AD1631146C96B0122D2021143064A3C
:10071000D1630349C96B02221143014AD163704777
:10072000C03F0350C03F0250C03F015008B52548AC
:10073000806B202188432349886300202249086276
:10074000009003E000BF0098401C00900098C8286B
:10075000F8D301201C4940310860486000204860FF
:100760000120486000BF184840304068C007C00FF3
:100770000028F8D02420144988601248806B80211A
:1007800088431049886300BF0F48C068C007C00F86
:100790000028F9D003200C49403108630120486348
:1007A000002048630120486300BF07484030406B89
:1007B000C007C00F0028F8D00120034940318863EA
:1007C00008BD00000082044000800440FFF798FD4F
:1007D0000948FFF714FD41220A210846FFF732FDC0
:1007E00042220A211220FFF72DFD43220A211A205E
:1007F000FFF728FD00BFFEE7FFFF0000000000003C
:1008000000000000000000000000000000000010D8
:1008100010101010101000001818000000123624DC
:10082000480000000000000000000000000000245C
:100830002424FE484848FE4848480000000010387C
:1008400054545030181414545438101000000044FC
:10085000A4A8A8A8541A2A2A2A440000000000309C
:10086000484848506EA49488897600000060602053
:10087000C0000000000000000000000000020408AA
:10088000081010101010100808040200004020107A
:100890001008080808080810102040000000000098
:1008A0001010D63838D610100000000000000000EC
:1008B00010101010FE1010101000000000000000BA
:1008C0000000000000000000606020C00000000088
:1008D000000000007F000000000000000000000099
:1008E0000000000000000000606000000000010245
:1008F00002040408081010202040400000000018E6
:1009000024424242424242422418000000000010A9
:100910007010101010101010107C00000000003C2F
:100920004242420404081020427E00000000003CC5
:10093000424204180402024244380000000000044D
:100940000C14242444447E04041E00000000007E95
:100950004040405864020242443800000000001C3D
:100960002440405864424242241800000000007EA7
:100970004444080810101010101000000000003C43
:100980004242422418244242423C00000000001827
:1009900024424242261A02022438000000000000CD
:1009A00000001818000000001818000000000000E7
:1009B00000000010000000000010102000000002E5
:1009C000040810204020100804020000000000006D
:1009D0000000FE000000FE000000000000000040DB
:1009E0002010080402040810204000000000003C11
:1009F0004242620204080800181800000000003893
:100A0000445AAAAAAAAAB44244380000000000101E
:100A100010182828243C444242E70000000000F857
:100A2000444444784442424244F800000000003EFE
:100A3000424280808080804244380000000000F8FC
:100A4000444242424242424244F80000000000FC5C
:100A5000424848784848404242FC0000000000FC00
:100A6000424848784848404040E000000000003CD0
:100A700044448080808E844444380000000000E7B5
:100A8000424242427E42424242E700000000007C75
:100A90001010101010101010107C00000000003E0C
:100AA0000808080808080808080888F0000000EE90
:100AB000444850705048484444EE0000000000E0B4
:100AC000404040404040404042FE0000000000EEF8
:100AD0006C6C6C6C5454545454D60000000000C725
:100AE000626252524A4A4A4646E20000000000381A
:100AF000448282828282828244380000000000FCAC
:100B0000424242427C40404040E000000000003849
:100B1000448282828282B2CA4C380600000000FC05
:100B20004242427C4848444442E300000000003E08
:100B30004242402018040242427C0000000000FEB5
:100B4000921010101010101010380000000000E774
:100B50004242424242424242423C0000000000E720
:100B6000424244242428281810100000000000D617
:100B700092929292AAAA6C4444440000000000E7BA
:100B8000422424181818242442E70000000000EE34
:100B90004444282810101010103800000000007E77
:100BA000840408081020204242FC0000001E10109F
:100BB000101010101010101010101E0000004040F7
:100BC000202010101008080404040202007808080D
:100BD000080808080808080808087800001C22000F
:100BE0000000000000000000000000000000000005
:100BF0000000000000000000000000FF0060100086
:100C000000000000000000000000000000000000E4
:100C10000000003C421E2242423F0000000000C093
:100C200040404058644242426458000000000000C6
:100C30000000001C22404040221C00000000000672
:100C40000202021E22424242261B00000000000057
:100C50000000003C427E4040423C00000000000F8B
:100C60001110107E10101010107C00000000000009
:100C70000000003E444438403C42423C000000C07A
:100C80004040405C6242424242E7000000000030C7
:100C90003000007010101010107C00000000000CDC
:100CA0000C00001C0404040404044478000000C088
:100CB0004040404E4850684844EE0000000000703C
:100CC0001010101010101010107C00000000000018
:100CD000000000FE4949494949ED000000000000BC
:100CE000000000DC6242424242E7000000000000D7
:100CF0000000003C42424242423C00000000000032
:100D0000000000D864424242447840E00000000005
:100D10000000001E22424242221E02070000000084
:100D2000000000EE3220202020F80000000000002B
:100D30000000003E42403C02427C000000000000F7
:100D40000010107C10101010100C000000000000AB
:100D5000000000C642424242463B00000000000044
:100D6000000000E7422424281010000000000000CA
:100D7000000000D79292AAAA44440000000000009C
:100D80000000006E241818182476000000000000EF
:100D9000000000E742242428181010E000000000A2
:100DA0000000007E44081010227E000000030404AE
:100DB00004040408040404040404030008080808E4
:100DC0000808080808080808080808080060101043
:100DD000101010081010101010106000304C43005C
:100DE0000000000000000000000000000000FFFF05
:04000005000000C136
:00000001FF
